:020000040800F2
:10000000005000207505000821050008290500089A
:10001000310500083905000841050008000000000E
:10002000000000000000000000000000E1250008C2
:100030004905000800000000C12700080928000841
:10004000BD050008BD050008BD050008BD05000888
:10005000BD050008BD050008BD050008BD05000878
:10006000BD050008BD050008BD050008BD05000868
:10007000BD050008BD050008BD050008BD05000858
:10008000BD050008BD050008BD050008BD05000848
:10009000BD050008BD050008BD050008BD05000838
:1000A000BD05000855050008BD050008BD05000890
:1000B000BD050008BD050008BD050008BD05000818
:1000C000BD050008BD050008BD050008BD05000808
:1000D000BD050008BD050008BD050008BD050008F8
:1000E000BD050008BD050008BD05000800000000B2
:1000F0000000000000000000000000000000000000
:0C01000000000000000000005FF808F1A3
:1001100010B5054C237833B9044B13B10448AFF341
:1001200000800123237010BD60000020000000004B
:10013000282E000808B5034B1BB103490348AFF351
:10014000008008BD0000000064000020282E000888
:1001500080B485B000AFF860B9607A60FB68064A89
:100160001A60BB68054A1A607B6880221A6000BF6B
:100170001437BD4680BC70477C0000201C01002065
:10018000B0B58EB000AF00F01BFA00F033F800F00D
:1001900077F8144B07F11C041D460FCD0FC495E8EA
:1001A000070084E8070007F11C030021184601F04E
:1001B00057FB03460C4A13600C4B3C461D460FCDC3
:1001C0000FC495E8070084E807003B460021184665
:1001D00001F046FB0346064A136001F03AFB00BFFC
:1001E000FDE700BF4C2E00081C030020742E000801
:1001F0002003002080B590B000AF07F1180328223B
:100200000021184602F030FD3B1D00221A605A60A2
:100210009A60DA601A610123BB614FF48033FB619D
:1002200000233B620123BB6202237B634FF48033D4
:10023000BB634FF4E013FB6307F11803184600F0AB
:1002400087FC0346002B01D000F0BAF80F237B6037
:100250000223BB600023FB604FF480633B610023FB
:100260007B613B1D0221184600F0F4FE0346002B83
:1002700001D000F0A5F800BF4037BD4680BD0000AA
:1002800080B588B000AF07F1100300221A605A60F1
:100290009A60DA602D4B9B692C4A43F010039361FE
:1002A0002A4B9B6903F01003FB60FB68274B9B699B
:1002B000264A43F020039361244B9B6903F02003FB
:1002C000BB60BB68214B9B69204A43F008039361E4
:1002D0001E4B9B6903F008037B607B681B4B9B698B
:1002E0001A4A43F004039361184B9B6903F004031B
:1002F0003B603B6800224FF40051154800F0F6FBCC
:1003000000220421134800F0F1FB4FF400533B613D
:1003100001237B610023BB610223FB6107F1100312
:1003200019460B4800F05EFA04233B6101237B6110
:100330000023BB610223FB6107F110031946054846
:1003400000F050FA00BF2037BD4680BD00100240CB
:1003500000100140000C014080B582B000AF786011
:100360004FF40051044800F0D9FB4FF47A7001F0CB
:10037000C3FA00BFF4E700BF0010014080B582B0AF
:1003800000AF78600421044800F0C8FB4FF47A7095
:1003900001F0B2FA00BFF5E7000C014080B582B071
:1003A00000AF78607B681B68044A934201D100F07B
:1003B0001DF900BF0837BD4680BD00BF002C0140BD
:1003C00080B400AF72B600BF00BFFDE780B584B057
:1003D00000AF184B9B69174A43F001039361154B1B
:1003E0009B6903F00103BB60BB68124BDB69114AD8
:1003F00043F08053D3610F4BDB6903F080537B6084
:100400007B6800220F216FF0010000F0C0F90A4B59
:100410005B68FB60FB6823F0E063FB60FB6843F014
:100420000073FB60044AFB68536000BF1037BD4691
:1004300080BD00BF001002400000014080B58CB0BC
:1004400000AF78600023BB6200237B62002387F843
:100450002F302E4B9B692D4A43F4006393612B4B45
:100460009B6903F40063BB60BB6807F10C0207F1F2
:1004700010031146184600F049FF00F033FFB86240
:10048000BB6A234AA2FB03239B0C013B7B62214BEB
:10049000214A1A601F4B40F2E732DA601D4A7B6A3C
:1004A00053601C4B00221A611A4B00229A60194BB0
:1004B00000229A61174800F077FF034687F82F3033
:1004C00097F82F30002B1BD1124800F0C5FF0346D0
:1004D00087F82F3097F82F30002B11D1192000F01A
:1004E00072F97B680F2B08D800227968192000F078
:1004F0004EF90A4A7B68136002E0012387F82F3027
:1005000097F82F3018463037BD4680BD00100240A6
:1005100083DE1B4324030020002C01400400002044
:1005200080B400AF00BFFDE780B400AF00BFFDE7BF
:1005300080B400AF00BFFDE780B400AF00BFFDE7AF
:1005400080B400AF00BFFDE780B400AF00BFBD4680
:1005500080BC704780B500AF024800F0CFFF00BFFD
:1005600080BD00BF2403002080B400AF00BFBD46A3
:1005700080BC7047FFF7F8FF0B480C490C4A00237A
:1005800002E0D458C4500433C4188C42F9D3094A49
:10059000094C002301E013600432A242FBD302F0B5
:1005A000C9FBFFF7EDFD7047000000206000002050
:1005B000CC2E00086000002004120020FEE700009E
:1005C00080B500AF084B1B68074A43F01003136067
:1005D000032000F0D1F80F20FFF730FFFFF7F6FE01
:1005E0000023184680BD00BF0020024080B400AF49
:1005F000054B1B781A46054B1B681344034A1360CE
:1006000000BFBD4680BC7047080000206C0300207E
:1006100080B400AF024B1B681846BD4680BC7047D3
:100620006C03002080B485B000AF78607B6803F075
:100630000703FB600C4BDB68BB60BA684FF6FF0337
:100640001340BB60FB681A02BB68134343F0BF63EF
:1006500043F40033BB60044ABB68D36000BF143767
:10066000BD4680BC704700BF00ED00E080B400AF25
:10067000044BDB681B0A03F007031846BD4680BC29
:10068000704700BF00ED00E080B483B000AF0346C8
:10069000FB7197F90730002B0BDBFB7903F01F028E
:1006A000064997F907305B09012000FA02F241F888
:1006B000232000BF0C37BD4680BC704700E100E03E
:1006C00080B483B000AF03463960FB7197F90730FF
:1006D000002B0ADB3B68DAB20C4997F907301201AC
:1006E000D2B20B4483F800230AE03B68DAB208492F
:1006F000FB7903F00F03043B1201D2B20B441A76CC
:1007000000BF0C37BD4680BC704700BF00E100E071
:1007100000ED00E080B489B000AFF860B9607A60A5
:10072000FB6803F00703FB61FB69C3F10703042BBC
:1007300028BF0423BB61FB690433062B02D9FB6984
:10074000033B00E000237B614FF0FF32BB6902FAFC
:1007500003F3DA43BB681A407B699A404FF0FF31DC
:100760007B6901FA03F3D9437B680B4013431846B6
:100770002437BD4680BC704780B582B000AF78603A
:100780007868FFF74FFF00BF0837BD4680BD80B5D2
:1007900086B000AF0346B9607A60FB7300237B61CB
:1007A000FFF764FF78617A68B9687869FFF7B2FF8C
:1007B000024697F90F3011461846FFF781FF00BF38
:1007C0001837BD4680BD80B582B000AF0346FB71CF
:1007D00097F907301846FFF757FF00BF0837BD46A7
:1007E00080BD000080B48BB000AF7860396000231A
:1007F0007B6200233B6269E101227B6A02FA03F318
:10080000FB613B681B68FA691340BB61BA69FB690D
:100810009A4240F058813B685B689A4A93425ED0A6
:10082000984A934275D8984A934258D0964A934230
:100830006FD8964A934252D0944A934269D8944AC8
:1008400093424CD0924A934263D8924A934246D004
:10085000904A93425DD8122B2AD8122B59D801A264
:1008600052F823F0DF080008B9080008CB08000898
:100870000D090008130900081309000813090008EE
:1008800013090008130900081309000813090008D8
:1008900013090008130900081309000813090008C8
:1008A0001309000813090008C1080008D50800084A
:1008B000794A934213D02CE03B68DB683B6229E025
:1008C0003B68DB6804333B6224E03B68DB68083349
:1008D0003B621FE03B68DB680C333B621AE03B681D
:1008E0009B68002B02D104233B6213E03B689B68AA
:1008F000012B05D108233B627B68FA691A6109E084
:1009000008233B627B68FA695A6103E000233B627B
:1009100000E000BFBB69FF2B01D87B6801E07B686A
:1009200004337B61BB69FF2B02D87B6A9B0002E02A
:100930007B6A083B9B003B617B691A680F213B691E
:1009400001FA03F3DB431A40396A3B6901FA03F306
:100950001A437B691A603B685B6803F08053002B85
:1009600000F0B1804D4B9B694C4A43F00103936109
:100970004A4B9B6903F00103BB60BB68484A7B6A32
:100980009B08023352F82330FB607B6A03F00303B9
:100990009B000F2202FA03F3DB43FA681340FB606B
:1009A0007B68404A934213D07B683F4A93420DD004
:1009B0007B683E4A934207D07B683D4A934201D10F
:1009C000032306E0042304E0022302E0012300E005
:1009D00000237A6A02F0030292009340FA681343FC
:1009E000FB602F497B6A9B080233FA6841F8232099
:1009F0003B685B6803F48013002B06D02D4B9A688C
:100A00002C49BB6913438B6006E02A4B9A68BB698B
:100A1000DB43284913408B603B685B6803F4001399
:100A2000002B06D0234BDA682249BB691343CB6005
:100A300006E0204BDA68BB69DB431E491340CB60FC
:100A40003B685B6803F40033002B06D0194B5A68EF
:100A50001849BB6913434B6006E0164B5A68BB69E3
:100A6000DB43144913404B603B685B6803F48033FD
:100A7000002B21D00F4B1A680E49BB6913430B6042
:100A800021E000BF000032100000311000002210F1
:100A90000000211000001210000011100010024090
:100AA0000000014000080140000C0140001001401E
:100AB00000140140000401400B4B1A68BB69DB4382
:100AC000094913400B607B6A01337B623B681A68FB
:100AD0007B6A22FA03F3002B7FF48EAE00BF00BFC7
:100AE0002C37BD4680BC70470004014080B483B001
:100AF00000AF78600B467B8013467B707B78002BC1
:100B000003D07A887B681A6103E07B881A047B68CB
:100B10001A6100BF0C37BD4680BC704780B485B0F9
:100B200000AF78600B467B807B68DB68FB607A886F
:100B3000FB6813401A04FB68D9437B880B401A43B7
:100B40007B681A6100BF1437BD4680BC7047000047
:100B500080B586B000AF78607B68002B01D101239F
:100B600072E27B681B6803F00103002B00F08780B2
:100B7000924B5B6803F00C03042B0CD08F4B5B682B
:100B800003F00C03082B12D18C4B5B6803F4803309
:100B9000B3F5803F0BD1894B1B6803F40033002B66
:100BA0006CD07B685B68002B68D101234CE27B68CA
:100BB0005B68B3F5803F06D1804B1B687F4A43F4E6
:100BC000803313602EE07B685B68002B0CD17B4B7D
:100BD0001B687A4A23F480331360784B1B68774A8A
:100BE00023F4802313601DE07B685B68B3F5A02FBE
:100BF0000CD1724B1B68714A43F4802313606F4B16
:100C00001B686E4A43F4803313600BE06B4B1B6828
:100C10006A4A23F480331360684B1B68674A23F4E5
:100C2000802313607B685B68002B13D0FFF7F0FC18
:100C3000386108E0FFF7ECFC02463B69D31A642BED
:100C400001D9032300E25D4B1B6803F40033002B42
:100C5000F0D014E0FFF7DCFC386108E0FFF7D8FCC7
:100C600002463B69D31A642B01D90323ECE1534BB1
:100C70001B6803F40033002BF0D100E000BF7B6859
:100C80001B6803F00203002B63D04C4B5B6803F03E
:100C90000C03002B0BD0494B5B6803F00C03082BB3
:100CA0001CD1464B5B6803F48033002B16D1434BB9
:100CB0001B6803F00203002B05D07B681B69012B26
:100CC00001D00123C0E13D4B1B6823F0F8027B6893
:100CD0005B69DB00394913430B603AE07B681B69B1
:100CE000002B20D0364B01221A60FFF791FC3861AF
:100CF00008E0FFF78DFC02463B69D31A022B01D9AD
:100D00000323A1E12D4B1B6803F00203002BF0D05D
:100D10002A4B1B6823F0F8027B685B69DB002749DC
:100D200013430B6015E0264B00221A60FFF770FC9E
:100D3000386108E0FFF76CFC02463B69D31A022BCE
:100D400001D9032380E11D4B1B6803F00203002B34
:100D5000F0D17B681B6803F00803002B3AD07B6856
:100D60009B69002B19D0174B01221A60FFF750FC2A
:100D7000386108E0FFF74CFC02463B69D31A022BAE
:100D800001D9032360E10D4B5B6A03F00203002BE2
:100D9000F0D0012000F0EAFA1CE00A4B00221A60B1
:100DA000FFF736FC38610FE0FFF732FC02463B6983
:100DB000D31A022B08D9032346E100BF00100240DA
:100DC0000000424280044242924B5B6A03F00203FD
:100DD000002BE9D17B681B6803F00403002B00F0B3
:100DE000A6800023FB758B4BDB6903F08053002B3F
:100DF0000DD1884BDB69874A43F08053D361854B23
:100E0000DB6903F08053BB60BB680123FB75824B39
:100E10001B6803F48073002B18D17F4B1B687E4A3C
:100E200043F480731360FFF7F3FB386108E0FFF7CA
:100E3000EFFB02463B69D31A642B01D9032303E17C
:100E4000754B1B6803F48073002BF0D07B68DB6864
:100E5000012B06D16F4B1B6A6E4A43F001031362EC
:100E60002DE07B68DB68002B0CD16A4B1B6A694A5A
:100E700023F001031362674B1B6A664A23F00403E5
:100E800013621CE07B68DB68052B0CD1614B1B6A8D
:100E9000604A43F0040313625E4B1B6A5D4A43F0F1
:100EA000010313620BE05B4B1B6A5A4A23F00103F8
:100EB0001362584B1B6A574A23F0040313627B6882
:100EC000DB68002B15D0FFF7A3FB38610AE0FFF7C2
:100ED0009FFB02463B69D31A41F28832934201D903
:100EE0000323B1E04B4B1B6A03F00203002BEED04F
:100EF00014E0FFF78DFB38610AE0FFF789FB02463B
:100F00003B69D31A41F28832934201D903239BE013
:100F1000404B1B6A03F00203002BEED1FB7D012B3B
:100F200005D13C4BDB693B4A23F08053D3617B689E
:100F3000DB69002B00F08780364B5B6803F00C0305
:100F4000082B61D07B68DB69022B46D1334B002232
:100F50001A60FFF75DFB386108E0FFF759FB0246B6
:100F60003B69D31A022B01D903236DE0294B1B687F
:100F700003F00073002BF0D17B681B6AB3F5803F50
:100F800008D1244B5B6823F400327B689B682149BD
:100F900013434B601F4B5B6823F474127B68196A20
:100FA0007B685B6A0B431B4913434B601B4B01225D
:100FB0001A60FFF72DFB386108E0FFF729FB0246B6
:100FC0003B69D31A022B01D903233DE0114B1B6867
:100FD00003F00073002BF0D035E0104B00221A60B4
:100FE000FFF716FB386108E0FFF712FB02463B698A
:100FF000D31A022B01D9032326E0064B1B6803F00A
:101000000073002BF0D11EE07B68DB69012B07D158
:10101000012319E0001002400070004060004242CD
:101020000B4B5B68FB60FB6803F480327B681B6AD8
:101030009A4206D1FB6803F470127B685B6A9A429D
:1010400001D0012300E0002318461837BD4680BDBB
:101050000010024080B584B000AF786039607B68D2
:10106000002B01D10123D0E06A4B1B6803F007037A
:101070003A689A4210D9674B1B6823F0070265490A
:101080003B6813430B60634B1B6803F007033A682C
:101090009A4201D00123B8E07B681B6803F0020389
:1010A000002B20D07B681B6803F00403002B05D0C5
:1010B000594B5B68584A43F4E06353607B681B6894
:1010C00003F00803002B05D0534B5B68524A43F4EE
:1010D00060535360504B5B6823F0F0027B689B6861
:1010E0004D4913434B607B681B6803F00103002BE1
:1010F00040D07B685B68012B07D1474B1B6803F42A
:101100000033002B15D101237FE07B685B68022B45
:1011100007D1414B1B6803F00073002B09D1012359
:1011200073E03D4B1B6803F00203002B01D1012348
:101130006BE0394B5B6823F003027B685B683649E0
:1011400013434B60FFF764FAF8600AE0FFF760FAB8
:101150000246FB68D31A41F28832934201D9032335
:1011600053E02D4B5B6803F00C027B685B689B00CF
:101170009A42EBD1274B1B6803F007033A689A4267
:1011800010D2244B1B6823F0070222493B6813430B
:101190000B60204B1B6803F007033A689A4201D0AA
:1011A000012332E07B681B6803F00403002B08D0A6
:1011B000194B5B6823F4E0627B68DB6816491343D4
:1011C0004B607B681B6803F00803002B09D0124BAF
:1011D0005B6823F460527B681B69DB000E49134394
:1011E0004B6000F021F802460B4B5B681B0903F0D3
:1011F0000F030A49CB5C22FA03F3094A1360094B37
:101200001B681846FFF71AF9002318461037BD4629
:1012100080BD00BF0020024000100240982E000850
:10122000000000200400002080B487B000AF00233D
:10123000FB600023BB6000237B6100237B600023F5
:101240003B611E4B5B68FB60FB6803F00C03042BE7
:1012500002D0082B03D027E0194B3B6127E0FB6845
:101260009B0C03F00F03174AD35C7B60FB6803F40D
:101270008033002B10D0114B5B685B0C03F0010333
:10128000114AD35CBB607B680D4A03FB02F2BB686A
:10129000B2FBF3F37B6104E07B680C4A02FB03F3CF
:1012A0007B617B693B6102E0054B3B6100BF3B69B1
:1012B00018461C37BD4680BC704700BF0010024076
:1012C00000127A00B02E0008C02E000800093D0070
:1012D00080B400AF024B1B681846BD4680BC704707
:1012E0000000002080B500AFFFF7F2FF0246054B7B
:1012F0005B68DB0A03F007030349CB5C22FA03F3C4
:10130000184680BD00100240A82E000880B483B0AB
:1013100000AF786039607B680F221A60114B5B6800
:1013200003F003027B685A600E4B5B6803F0F00227
:101330007B689A600B4B5B6803F4E0627B68DA6061
:10134000084B5B68DB0803F4E0627B681A61064BBC
:101350001B6803F007023B681A6000BF0C37BD46EC
:1013600080BC7047001002400020024080B485B06D
:1013700000AF78600A4B1B680A4AA2FB03235B0A92
:101380007A6802FB03F3FB6000BFFB685A1EFA6039
:10139000002BF9D100BF00BF1437BD4680BC704799
:1013A00000000020D34D621080B582B000AF78609D
:1013B0007B68002B01D1012341E07B6893F83D302D
:1013C000DBB2002B06D17B68002283F83C207868D2
:1013D00000F039F87B68022283F83D207B681A68A8
:1013E0007B6804331946104600F09CF97B680122A3
:1013F00083F846207B68012283F83E207B68012227
:1014000083F83F207B68012283F840207B6801221B
:1014100083F841207B68012283F842207B68012207
:1014200083F843207B68012283F844207B680122F3
:1014300083F845207B68012283F83D20002318466D
:101440000837BD4680BD80B483B000AF786000BF70
:101450000C37BD4680BC704780B485B000AF786063
:101460007B6893F83D30DBB2012B01D001233AE0D9
:101470007B68022283F83D207B681B68DA687B6802
:101480001B6842F00102DA607B681B68184A9342CD
:101490000ED07B681B68B3F1804F09D07B681B6856
:1014A000144A934204D07B681B68134A934211D1BB
:1014B0007B681B689B6803F00703FB60FB68062BD7
:1014C00010D07B681B681A687B681B6842F00102B9
:1014D0001A6007E07B681B681A687B681B6842F02B
:1014E00001021A60002318461437BD4680BC7047BD
:1014F000002C0140000400400008004080B584B08A
:1015000000AF78607B681B68DB68FB607B681B68EA
:101510001B69BB60BB6803F00203002B20D0FB6893
:1015200003F00203002B1BD07B681B686FF00202E4
:101530001A617B6801221A777B681B689B6903F03C
:101540000303002B03D0786800F0D1F805E0786839
:1015500000F0C4F8786800F0D3F87B6800221A77AE
:10156000BB6803F00403002B20D0FB6803F00403E6
:10157000002B1BD07B681B686FF004021A617B682C
:1015800002221A777B681B689B6903F44073002B67
:1015900003D0786800F0ABF805E0786800F09EF8BA
:1015A000786800F0ADF87B6800221A77BB6803F01A
:1015B0000803002B20D0FB6803F00803002B1BD08E
:1015C0007B681B686FF008021A617B6804221A7737
:1015D0007B681B68DB6903F00303002B03D078688A
:1015E00000F085F805E0786800F078F8786800F099
:1015F00087F87B6800221A77BB6803F01003002B82
:1016000020D0FB6803F01003002B1BD07B681B6805
:101610006FF010021A617B6808221A777B681B68DA
:10162000DB6903F44073002B03D0786800F05FF8A7
:1016300005E0786800F052F8786800F061F87B689F
:1016400000221A77BB6803F00103002B0CD0FB6863
:1016500003F00103002B07D07B681B686FF00102C9
:101660001A617868FEF79AFEBB6803F08003002BCE
:101670000CD0FB6803F08003002B07D07B681B684D
:101680006FF080021A61786800F0C3F8BB6803F05D
:101690004003002B0CD0FB6803F04003002B07D065
:1016A0007B681B686FF040021A61786800F031F8BF
:1016B000BB6803F02003002B0CD0FB6803F0200371
:1016C000002B07D07B681B686FF020021A617868D6
:1016D00000F096F800BF1037BD4680BD80B483B0DF
:1016E00000AF786000BF0C37BD4680BC704780B447
:1016F00083B000AF786000BF0C37BD4680BC704738
:1017000080B483B000AF786000BF0C37BD4680BCAA
:10171000704780B483B000AF786000BF0C37BD461F
:1017200080BC704780B485B000AF786039607B685A
:101730001B68FB607B682F4A93420BD07B68B3F138
:10174000804F07D07B682C4A934203D07B682B4A9A
:10175000934208D1FB6823F07003FB603B685B6831
:10176000FA681343FB607B68224A93420BD07B6884
:10177000B3F1804F07D07B681F4A934203D07B6848
:101780001E4A934208D1FB6823F44073FB603B6818
:10179000DB68FA681343FB60FB6823F080023B6858
:1017A0005B691343FB607B68FA681A603B689A6860
:1017B0007B68DA623B681A687B689A627B680D4ACC
:1017C000934203D13B681A697B681A637B680122E4
:1017D0005A617B681B6903F00103002B05D07B680D
:1017E0001B6923F001027B681A6100BF1437BD46F4
:1017F00080BC7047002C01400004004000080040FD
:1018000080B483B000AF786000BF0C37BD4680BCA9
:10181000704780B483B000AF786000BF0C37BD461E
:1018200080BC704780B485B000AF0346FB800023C6
:10183000FB60B7F90630842B05D0B7F90620FB68AA
:1018400013440333FB60FB6818461437BD4680BC65
:10185000704780B500AF00F0F7FA0023184680BD4E
:10186000F0B589B004AF786039607B685B69002BA4
:1018700020D07B689B69002B1CD07B685C687B68F0
:101880001D687B681E697B68B3F908301846FFF74E
:10189000C9FF01467B685B697A689269029201938D
:1018A00000913B6832462946204600F0E8F803469E
:1018B000FB601CE07B685C687B681D687B681B695B
:1018C0009EB27B68B3F908301846FFF7ABFF0246BB
:1018D00007F10C03019300923B68324629462046EB
:1018E00000F02DF90346012B01D0002300E0FB6836
:1018F00018461437BD46F0BD80B584B000AF78609F
:101900007B68FB60FB68002B01D0FB6800E00123D3
:10191000184600F063FA002318461037BD4680BD14
:1019200080B483B000AF78607B6803F108027B6805
:101930005A607B684FF0FF329A607B6803F10802BF
:101940007B68DA607B6803F108027B681A617B6858
:1019500000221A6000BF0C37BD4680BC704780B4BF
:1019600083B000AF78607B6800221A6100BF0C373B
:10197000BD4680BC704780B485B000AF78603960E8
:101980007B685B68FB603B68FA685A60FB689A6832
:101990003B689A60FB689B683A685A60FB683A68E3
:1019A0009A603B687A681A617B681B685A1C7B687E
:1019B0001A6000BF1437BD4680BC704780B485B044
:1019C00000AF786039603B681B68BB60BB68B3F1EF
:1019D000FF3F03D17B681B69FB600CE07B68083329
:1019E000FB6002E0FB685B68FB60FB685B681B6890
:1019F000BA689A42F6D2FB685A683B685A603B68FC
:101A00005B683A689A603B68FA689A60FB683A6873
:101A10005A603B687A681A617B681B685A1C7B684D
:101A20001A6000BF1437BD4680BC704780B485B0D3
:101A300000AF78607B681B69FB607B685B687A68D5
:101A400092689A607B689B687A6852685A60FB6803
:101A50005B687A689A4203D17B689A68FB685A602F
:101A60007B6800221A61FB681B685A1EFB681A60BB
:101A7000FB681B6818461437BD4680BC704780B5AC
:101A80008EB004AFF860B9607A603B607B6B002B6E
:101A90000BD14FF0500383F31188BFF36F8FBFF367
:101AA0004F8F3B6200BF00BFFDE7BB6B002B0BD12C
:101AB0004FF0500383F31188BFF36F8FBFF34F8F45
:101AC000FB6100BF00BFFDE7A0233B613B69A02B8A
:101AD0000BD04FF0500383F31188BFF36F8FBFF328
:101AE0004F8FBB6100BF00BFFDE73B69BB6B002BA5
:101AF0001ED07B6B002B1BD0BB6B7B627B6A7A6B2F
:101B00001A637B6A022283F89D20002303937B6A79
:101B1000029307F1140301933B6B00933B687A68CF
:101B2000B968F86800F050F8786A00F0EDF801E064
:101B300000237B617B6918462837BD4680BD80B590
:101B40008CB004AFF860B9603B601346FB80FB8843
:101B50009B00184600F09CFE78617B69002B0ED03C
:101B6000A02000F095FEF861FB69002B03D0FB6913
:101B70007A691A6305E0786900F058FF01E00023F4
:101B8000FB61FB69002B17D0FB69002283F89D20C5
:101B9000FA8800230393FB690293FB6A0193BB6AF3
:101BA00000933B68B968F86800F00EF8F86900F037
:101BB000ABF80123BB6102E04FF0FF33BB61BB69AF
:101BC00018462037BD4680BD80B588B000AFF860AC
:101BD000B9607A603B603B6B1A6B7B6803F18043B2
:101BE000013B9B001344BB61BB6923F00703BB614E
:101BF000BB6903F00703002B0BD04FF0500383F3B6
:101C00001188BFF36F8FBFF34F8F7B6100BF00BFA1
:101C1000FDE7BB68002B1FD00023FB6112E0BA6810
:101C2000FB69134419783A6BFB69134434330A4651
:101C30001A70BA68FB6913441B78002B06D0FB6945
:101C40000133FB61FB690F2BE9D900E000BF3B6B5F
:101C5000002283F8432003E03B6B002283F834200A
:101C6000BB6A062B01D90623BB623B6BBA6ADA62F8
:101C70003B6BBA6A5A643B6B00229A643B6B043339
:101C80001846FFF76CFE3B6B18331846FFF767FEEC
:101C90003B6B3A6B1A61BB6AC3F107023B6B9A61FB
:101CA0003B6B3A6B5A623B6B0022C3F898203B6B4C
:101CB000002283F89C203B6B4C334C2200211846B9
:101CC00000F0D2FF3B6B0D4A1A653B6B0C4A5A651C
:101CD0003B6B0C4A9A653A68F968B86900F028FCD1
:101CE00002463B6B1A60FB6A002B02D0FB6A3A6B20
:101CF0001A6000BF2037BD4680BD00BFC410002061
:101D00002C1100209411002080B582B000AF7860C3
:101D100000F0FCFC2A4B1B680133294A1360294B55
:101D20001B68002B09D1274A7B681360244B1B6872
:101D3000012B10D100F0D2FA0DE0234B1B68002BD1
:101D400009D1204B1B68DA6A7B68DB6A9A4202D8A9
:101D50001C4A7B6813601D4B1B6801331B4A1360D0
:101D60007B68DB6A01229A40194B1B681343184AAF
:101D700013607B68DA6A13469B0013449B00154A84
:101D80001A447B68043319461046FFF7F4FD00F04F
:101D9000EDFC0D4B1B68002B0ED00A4B1B68DA6A5A
:101DA0007B68DB6A9A4207D20B4B4FF080521A6075
:101DB000BFF34F8FBFF36F8F00BF0837BD4680BDA5
:101DC00070040020700300207C0400208C0400209C
:101DD000780400207403002004ED00E080B584B096
:101DE00000AF78600023FB607B68002B18D0144B99
:101DF0001B68002B0BD04FF0500383F31188BFF307
:101E00006F8FBFF34F8FBB6000BF00BFFDE700F0D7
:101E100085F80021786800F025FB00F08DF8F86067
:101E2000FB68002B07D1074B4FF080521A60BFF3BD
:101E30004F8FBFF36F8F00BF1037BD4680BD00BF0F
:101E40009804002004ED00E080B58AB004AF0023C0
:101E5000BB6000237B603A46391D07F10803184632
:101E6000FEF776F939687B68BA680292019300231D
:101E7000009300230A4621492148FFF700FE03464C
:101E8000204A13601F4B1B68002B02D001237B618B
:101E900001E000237B617B69012B1BD14FF05003D4
:101EA00083F31188BFF36F8FBFF34F8F3B6100BF88
:101EB000154B1B684C33154A1360154B4FF0FF321E
:101EC0001A60144B01221A60134B00221A6000F0B2
:101ED000ABFB0FE07B69B3F1FF3F0BD14FF0500339
:101EE00083F31188BFF36F8FBFF34F8FFB6000BF89
:101EF00000BFFDE700BF1837BD4680BD902E00082B
:101F0000AD2200089404002070030020100000207F
:101F1000900400207C0400207404002080B400AFF2
:101F2000044B1B680133034A136000BFBD4680BCED
:101F3000704700BF9804002080B584B000AF002334
:101F4000FB600023BB60424B1B68002B0BD14FF0A2
:101F5000500383F31188BFF36F8FBFF34F8F3B6044
:101F600000BF00BFFDE700F0D1FB394B1B68013B10
:101F7000374A1360364B1B68002B61D1354B1B6809
:101F8000002B5DD02EE0344BDB68DB68FB60FB6828
:101F900018331846FFF74AFDFB6804331846FFF76D
:101FA00045FDFB68DB6A01229A402C4B1B681343FA
:101FB0002A4A1360FB68DA6A13469B0013449B00AD
:101FC000274A1A44FB68043319461046FFF7D3FC2E
:101FD000FB68DA6A234B1B68DB6A9A4202D3224B06
:101FE00001221A601C4B1B68002BCCD1FB68002B14
:101FF00001D000F017FA1D4B1B687B607B68002B3B
:1020000010D000F037F80346002B02D0164B012207
:102010001A607B68013B7B607B68002BF1D1134B1E
:1020200000221A60104B1B68002B09D00123BB60F3
:102030000F4B4FF080521A60BFF34F8FBFF36F8F7B
:1020400000F094FBBB6818461037BD4680BD00BF4A
:102050009804002070040020300400207804002040
:1020600074030020700300208404002080040020FA
:1020700004ED00E080B586B000AF00237B614F4BDC
:102080001B68002B40F08F804D4B1B6801333B6178
:102090004B4A3B6913603B69002B21D1494B1B68BC
:1020A0001B68002B0BD04FF0500383F31188BFF354
:1020B0006F8FBFF34F8F3B6000BF00BFFDE7414B09
:1020C0001B68FB60404B1B683E4A13603E4AFB683E
:1020D00013603E4B1B6801333C4A136000F0A2F9C9
:1020E0003B4B1B683A699A4248D3364B1B681B68C6
:1020F000002B04D1364B4FF0FF321A603EE0314BDB
:102100001B68DB68DB68BB60BB685B687B603A6947
:102110007B689A4203D22E4A7B6813602EE0BB682C
:1021200004331846FFF782FCBB689B6A002B04D07F
:10213000BB6818331846FFF779FCBB68DB6A0122DD
:102140009A40244B1B681343224A1360BB68DA6A27
:1021500013469B0013449B001F4A1A44BB68043378
:1021600019461046FFF707FCBB68DA6A1B4B1B6871
:10217000DB6A9A42B9D301237B61B6E7174B1B6830
:10218000DA6A154913469B0013449B000B441B68F5
:10219000012B01D901237B61114B1B68002B07D058
:1021A00001237B6104E00F4B1B6801330D4A136070
:1021B0007B6918461837BD4680BD00BF98040020D3
:1021C00074040020280400202C040020880400202F
:1021D0009004002078040020740300207003002085
:1021E000840400208004002080B487B000AF294B15
:1021F0001B68002B03D0284B01221A6045E0264BB8
:1022000000221A60254B1B68FB60FB68B3FA83F35E
:10221000FB72FB7AC3F11F037B6121497A69134684
:102220009B0013449B000B441B68002B0BD14FF009
:10223000500383F31188BFF36F8FBFF34F8F7B6021
:1022400000BF00BFFDE77A6913469B0013449B0063
:10225000134A13443B613B695B685A683B695A60A7
:102260003B695A683B6908339A4204D13B695B6811
:102270005A683B695A603B695B68DB68094A1360CE
:10228000084B1B684C33084A136000BF1C37BD461F
:1022900080BC70479804002084040020780400204B
:1022A00074030020700300201000002080B582B06D
:1022B00000AF786000F052F8064B1B68012BF9D98B
:1022C000054B4FF080521A60BFF34F8FBFF36F8FF3
:1022D000F0E700BF7403002004ED00E080B582B099
:1022E00000AF00237B600CE07A6813469B00134428
:1022F0009B00124A13441846FFF712FB7B68013318
:102300007B607B68062BEFD90D48FFF709FB0D4872
:10231000FFF706FB0C48FFF703FB0C48FFF700FB39
:102320000B48FFF7FDFA0B4B054A1A600A4B054AAA
:102330001A6000BF0837BD4680BD00BF740300208F
:102340000004002014040020300400204404002075
:102350005C040020280400202C04002080B582B0FA
:1023600000AF19E000F0D2F9104BDB68DB687B604E
:102370007B6804331846FFF759FB0D4B1B68013B84
:102380000B4A13600B4B1B68013B0A4A136000F0B9
:10239000EDF9786800F010F8064B1B68002BE1D1CE
:1023A00000BF00BF0837BD4680BD00BF4404002009
:1023B000700400205804002080B584B000AF78601D
:1023C0007B684C33184600F057FC7B6893F89D30CF
:1023D000002B08D17B681B6B184600F027FB786840
:1023E00000F024FB19E07B6893F89D30012B03D1AA
:1023F000786800F01BFB10E07B6893F89D30022B9F
:102400000BD04FF0500383F31188BFF36F8FBFF3EE
:102410004F8FFB6000BF00BFFDE700BF1037BD4618
:1024200080BD000080B483B000AF0C4B1B681B68FC
:10243000002B04D10A4B4FF0FF321A6008E0074B23
:102440001B68DB68DB687B607B685B68044A136041
:1024500000BF0C37BD4680BC704700BF2804002079
:102460009004002080B584B000AF78603960294BBB
:102470001B68FB60284B1B6804331846FFF7D6FA2D
:102480000346002B0BD1244B1B68DB6A012202FAA6
:1024900003F3DA43214B1B681340204A13607B6827
:1024A000B3F1FF3F0AD13B68002B07D01A4B1B68E2
:1024B000043319461A48FFF75EFA26E0FA687B688B
:1024C0001344BB60144B1B68BA685A60BA68FB6857
:1024D0009A4209D2134B1A680F4B1B6804331946F2
:1024E0001046FFF76BFA10E00F4B1A680A4B1B6897
:1024F000043319461046FFF761FA0C4B1B68BA68A3
:102500009A4202D2094ABB68136000BF1037BD4629
:1025100080BD00BF740400207003002078040020F8
:102520005C0400202C0400202804002090040020DB
:1025300080B485B000AFF860B9607A60FB68043B96
:10254000FB60FB684FF080721A60FB68043BFB6025
:10255000BB6823F00102FB681A60FB68043BFB6068
:10256000084AFB681A60FB68143BFB607A68FB68EA
:102570001A60FB68203BFB60FB6818461437BD46B9
:1025800080BC70478925000880B485B000AF002367
:102590007B60124B1B68B3F1FF3F0BD04FF0500331
:1025A00083F31188BFF36F8FBFF34F8FFB6000BFC2
:1025B00000BFFDE74FF0500383F31188BFF36F8F27
:1025C000BFF34F8FBB6000BF00BF7B68002BFCD008
:1025D00000BF00BF1437BD4680BC70470C00002010
:1025E000074B19680868B0E8F00F80F30988BFF35B
:1025F0006F8F4FF0000080F311884EF00D0E704782
:102600007003002000BF00BF06480068006880F328
:10261000088862B661B6BFF34F8FBFF36F8F00DFDC
:1026200000BF00BF08ED00E080B584B000AF324BC2
:10263000FB60FB681B78DBB27B60FB68FF221A70D3
:10264000FB681B78DBB2FB70FB78DBB203F0500356
:10265000DAB22A4B1A702A4B07221A6009E0284B7B
:102660001B68013B264A1360FB78DBB25B00DBB2E0
:10267000FB70FB78DBB203F08003802BEFD0204BA4
:102680001B68C3F10703042B0BD04FF0500383F3F7
:102690001188BFF36F8FBFF34F8FBB6000BF00BFC8
:1026A000FDE7174B1B681B02154A1360144B1B6890
:1026B00003F4E063124A13607B68DAB2FB681A70B5
:1026C000104B1B680F4A43F4700313600D4B1B68DB
:1026D0000C4A43F07043136000F0B8F80A4B002234
:1026E0001A60FFF791FFFFF77FFDFFF74DFF002313
:1026F00018461037BD4680BD00E400E09C04002071
:10270000A004002020ED00E00C00002080B483B085
:1027100000AF4FF0500383F31188BFF36F8FBFF307
:102720004F8F7B6000BF0F4B1B6801330D4A136056
:102730000C4B1B68012B10D10B4B1B68DBB2002B21
:102740000BD04FF0500383F31188BFF36F8FBFF3AB
:102750004F8F3B6000BF00BFFDE700BF0C37BD4699
:1027600080BC70470C00002004ED00E080B483B012
:1027700000AF124B1B68002B0BD14FF0500383F3BB
:102780001188BFF36F8FBFF34F8F7B6000BF00BF17
:10279000FDE70A4B1B68013B084A1360074B1B68A7
:1027A000002B05D100233B603B6883F3118800BFF9
:1027B00000BF0C37BD4680BC704700BF0C00002036
:1027C000EFF30980BFF36F8F0D4B1A6820E9F00F0C
:1027D00010602DE908404FF0500080F31188FFF79A
:1027E00003FD4FF0000080F31188BDE80840196830
:1027F0000868B0E8F00F80F30988BFF36F8F704767
:102800007003002000BF00BF80B582B000AF4FF062
:10281000500383F31188BFF36F8FBFF34F8F7B603B
:1028200000BFFFF727FC0346002B03D0064B4FF0F9
:1028300080521A6000233B603B6883F3118800BF1D
:1028400000BF0837BD4680BD04ED00E080B400AF96
:102850000A4B00221A600A4B00221A60094B1B68BF
:10286000094AA2FB03239B09084A013B1360034B5F
:1028700007221A6000BFBD4680BC704710E000E030
:1028800018E000E000000020D34D621014E000E0EA
:1028900080B58AB000AF78600023FB61FFF73EFB94
:1028A0005C4B1B68002B01D100F024F95A4B1A68CD
:1028B0007B681340002B40F095807B68002B1ED076
:1028C00008227B6813447B607B6803F00703002BBE
:1028D00015D07B6823F0070308337B607B6803F027
:1028E0000703002B0BD04FF0500383F31188BFF385
:1028F0006F8FBFF34F8F7B6100BF00BFFDE77B6829
:10290000002B6FD0454B1B687A689A426AD8444BBB
:102910003B62434B1B687B6204E07B6A3B627B6AE1
:102920001B687B627B6A5B687A689A4203D97B6A20
:102930001B68002BF1D1374B1B687A6A9A4251D041
:102940003B6A1B6808221344FB617B6A1A683B6A76
:102950001A607B6A5A687B68D21A08235B009A4225
:1029600020D97A6A7B681344BB61BB6903F0070313
:10297000002B0BD04FF0500383F31188BFF36F8F00
:10298000BFF34F8F3B6100BF00BFFDE77B6A5A6812
:102990007B68D21ABB695A607B6A7A685A60B869E8
:1029A00000F00AF91D4B1A687B6A5B68D31A1B4A50
:1029B00013601A4B1A681B4B1B689A4203D2174BC1
:1029C0001B68184A13607B6A5A68134B1B681A43CA
:1029D0007B6A5A607B6A00221A60134B1B680133C2
:1029E000114A1360FFF7A8FAFB6903F00703002BF5
:1029F0000BD04FF0500383F31188BFF36F8FBFF3F9
:102A00004F8FFB6000BF00BFFDE7FB69184628370A
:102A1000BD4680BDAC100020C0100020B0100020CA
:102A2000A4100020B4100020B810002080B586B09B
:102A300000AF78607B687B617B68002B4FD00823F8
:102A40005B427A6913447B617B693B613B695A68ED
:102A5000254B1B681340002B0BD14FF0500383F321
:102A60001188BFF36F8FBFF34F8FFB6000BF00BFB4
:102A7000FDE73B691B68002B0BD04FF0500383F33D
:102A80001188BFF36F8FBFF34F8FBB6000BF00BFD4
:102A9000FDE73B695A68144B1B681340002B1ED09E
:102AA0003B691B68002B1AD13B695A680E4B1B68A7
:102AB000DB431A403B695A60FFF730FA3B695A68BA
:102AC0000A4B1B681344094A1360386900F074F814
:102AD000074B1B680133064A1360FFF72DFA00BF4E
:102AE0001837BD4680BD00BFC0100020B0100020C8
:102AF000BC10002080B485B000AF4FF44063BB60D1
:102B0000274BFB60FB6803F00703002B0CD0FB682E
:102B10000733FB60FB6823F00703FB60BA68FB68C0
:102B2000D31A1F4A1344BB60FB687B601D4A7B6855
:102B300013601C4B00225A607B68BA681344FB6028
:102B40000822FB689B1AFB60FB6823F00703FB600D
:102B5000FB68154A1360144B1B6800225A60124B25
:102B60001B6800221A607B683B603B68FA68D21AD7
:102B70003B685A600C4B1A683B681A603B685B689C
:102B80000A4A13603B685B68094A1360094B4FF0BF
:102B900000421A6000BF1437BD4680BC704700BFBA
:102BA000A4040020A4100020AC100020B4100020C9
:102BB000B0100020C010002080B485B000AF786055
:102BC000274BFB6002E0FB681B68FB60FB681B682F
:102BD0007A689A42F7D8FB68BB60FB685B68BA68A2
:102BE00013447A689A4208D1FB685A687B685B682C
:102BF0001A44FB685A60FB687B607B68BB607B683B
:102C00005B68BA681A44FB681B689A4218D1FB6873
:102C10001A68144B1B689A420DD07B685A68FB688F
:102C20001B685B681A447B685A60FB681B681A68FB
:102C30007B681A6008E00B4B1A687B681A6003E037
:102C4000FB681A687B681A60FA687B689A4202D04F
:102C5000FB687A681A6000BF1437BD4680BC7047B5
:102C6000A4100020AC10002003460244934200D17F
:102C7000704703F8011BF9E72D4B70B51B6804463C
:102C8000834253D0C3691BB3DB6863B10025E3699A
:102C9000DB685959B1B90435802DF8D1E369204674
:102CA000D96800F06DF8E369196811B1204600F0A9
:102CB00067F8E3699D685DB1294620462D6800F0FC
:102CC0005FF8F8E70E68204600F05AF83146E1E771
:102CD000616911B1204600F053F8E16911B1204655
:102CE00000F04EF8216B11B1204600F049F8616BFD
:102CF00011B1204600F044F8A16B11B1204600F05C
:102D00003FF8A16C11B1204600F03AF8616C11B1A6
:102D1000204600F035F8E16A11B1204600F030F8A5
:102D2000236A1BB12046BDE87040184770BD00BF44
:102D30001000002070B500260C4D0D4C641BA41033
:102D4000A64209D100F070F800260A4D0A4C641B17
:102D5000A410A64205D170BD55F8043B9847013632
:102D6000EEE755F8043B98470136F2E7C42E000819
:102D7000C42E0008C42E0008C82E000870477047F3
:102D800038B50546002940D051F8043C0C1F002BF3
:102D9000B8BFE41800F03CF81C4A136833B963600C
:102DA00014602846BDE8384000F038B8A34208D97E
:102DB000206821188B4201BF19685B6809182160DF
:102DC000EDE71A465B680BB1A342FAD911685018B7
:102DD000A0420BD120680144501883421160E0D119
:102DE00018685B68084410605360DAE702D90C2366
:102DF0002B60D6E7206821188B4201BF19685B68F9
:102E00000918216063605460CBE738BD00120020D0
:102E10000148FFF7B3BF00BFFC1100200148FFF7D6
:102E2000AEBF00BFFC110020F8B500BFF8BC08BC65
:102E30009E467047F8B500BFF8BC08BC9E46704778
:102E400064656661756C745461736B00402E000894
:102E5000590300080000000000000000800000008E
:102E600000000000000000006D795461736B303287
:102E700000000000682E00087D030008FDFF000030
:102E800000000000800000000000000000000000C2
:102E900049444C4500000000000000000000000014
:102EA00001020304060708090000000001020304F0
:102EB00002030405060708090A0B0C0D0E0F10107B
:042EC000010200000B
:042EC40035010008CC
:042EC80011010008EC
:102ECC0000127A001000000001000000AAAAAAAAB1
:102EDC001400002000000000C41000202C11002061
:102EEC009411002000000000000000000000000011
:102EFC0000000000000000000000000000000000C6
:102F0C0000000000000000000000000000000000B5
:102F1C0000000000000000000000000000000000A5
:040000050800057575
:00000001FF
